:100000000C9434000C943E000C943E000C943E0082
:100010000C943E000C943E000C943E000C943E0068
:100020000C943E000C943E000C943E000C943E0058
:100030000C943E000C943E000C943E000C943E0048
:100040000C943E000C943E000C943E000C943E0038
:100050000C943E000C943E000C943E000C943E0028
:100060000C943E000C943E0011241FBECFEFD8E04C
:10007000DEBFCDBF0E9440000C9459000C940000DC
:1000800084B18FEF84B98CEF8BB980E284B989B1E8
:1000900099B14C990BC082FD03C0892F887093FDE4
:1000A00080E285B989B199B14C9BF5CF80E085B9E3
:0600B000F9CFF894FFCF28
:00000001FF
